:100000000C945D000C9485000C9485000C94850084
:100010000C9485000C9485000C9485000C9485004C
:100020000C9485000C9485000C9485000C9485003C
:100030000C9485000C9485000C9485000C9485002C
:100040000C942F030C9485000C94FD020C94D702A1
:100050000C9485000C9485000C9485000C9485000C
:100060000C9485000C9485000000000024002700FB
:100070002A0000000000250028002B0004040404CE
:100080000404040402020202020203030303030342
:10009000010204081020408001020408102001021F
:1000A00004081020000000080002010000030407FB
:1000B0000000000000000000B80411241FBECFEFB4
:1000C000D8E0DEBFCDBF11E0A0E0B1E0E4E8FAE0A7
:1000D00002C005900D92AA38B107D9F722E0AAE82C
:1000E000B1E001C01D92A033B207E1F710E0CDE509
:1000F000D0E004C02197FE010E943505CC35D10720
:10010000C9F70E9479030C9440050C940000E9EAB9
:10011000F0E02491E5E9F0E09491E1E8F0E0E49189
:10012000EE2309F43BC0222339F1233091F038F457
:100130002130A9F0223001F524B52F7D12C02730DF
:1001400091F02830A1F02430B9F4209180002F7D67
:1001500003C0209180002F77209380000DC024B52C
:100160002F7724BD09C02091B0002F7703C02091C4
:10017000B0002F7D2093B000F0E0EE0FFF1FEE588F
:10018000FF4FA591B4912FB7F894EC91811103C062
:1001900090959E2301C09E2B9C932FBF0895CF92D4
:1001A000DF92EF92FF920F931F93CF93DF936C0137
:1001B0007A018B01C0E0D0E0CE15DF0589F0D801CF
:1001C0006D918D01D601ED91FC910190F081E02DB2
:1001D000C6010995892B11F47E0102C02196ECCF4E
:1001E000C701DF91CF911F910F91FF90EF90DF90AA
:1001F000CF900895089580E090E00895FC01538D1C
:10020000448D252F30E0842F90E0821B930B5417F0
:1002100010F0CF96089501970895FC01918D828D7D
:10022000981761F0828DDF01A80FB11D5D968C914A
:10023000928D9F5F9F73928F90E008958FEF9FEF55
:100240000895FC01918D828D981731F0828DE80F11
:10025000F11D858D90E008958FEF9FEF0895FC01CB
:10026000918D228D892F90E0805C9F4F821B910998
:100270008F739927089583E991E00E942F0121E06F
:10028000892B09F420E0822F0895FC01848DDF0181
:10029000A80FB11DA35ABF4F2C91848D90E00196F9
:1002A0008F739927848FA689B7892C93A089B189E8
:1002B0008C9180648C93938D848D981306C00288F2
:1002C000F389E02D80818F7D80830895EF92FF92E6
:1002D0000F931F93CF93DF93EC0181E0888F9B8D69
:1002E0008C8D981305C0E889F989808185FD24C02B
:1002F000F62E0B8D10E00F5F1F4F0F731127E02EAE
:100300008C8DE8120CC00FB607FCFACFE889F9898A
:10031000808185FFF5CFCE010E944501F1CF8B8D05
:10032000FE01E80FF11DE35AFF4FF0820B8FEA89BF
:10033000FB898081806207C0EE89FF896083E8893C
:10034000F98980818064808381E090E0DF91CF91A2
:100350001F910F91FF90EF900895CF93DF93EC01E1
:10036000888D8823C9F0EA89FB89808185FD05C0D5
:10037000A889B9898C9186FD0FC00FB607FCF5CF0F
:10038000808185FFF2CFA889B9898C9185FFEDCF57
:10039000CE010E944501E7CFDF91CF91089580E023
:1003A00090E0892B29F00E943B0181110C94000000
:1003B0000895CF93DF9390E0FC01E057FF4F249125
:1003C000FC01E458FF4F8491882361F190E0880F8D
:1003D000991FFC01E859FF4FC591D491FC01EE58DB
:1003E000FF4FA591B491611109C09FB7F89488811E
:1003F000209582238883EC912E230BC0623061F418
:100400009FB7F8943881822F809583238883EC915D
:100410002E2B2C939FBF06C08FB7F894E8812E2B0C
:1004200028838FBFDF91CF9108953FB7F8948091D3
:100430008F0190919001A0919101B091920126B508
:10044000A89B05C02F3F19F00196A11DB11D3FBF0C
:10045000BA2FA92F982F8827820F911DA11DB11D9A
:10046000BC01CD0143E0660F771F881F991F4A9595
:10047000D1F708958F929F92AF92BF92CF92DF9261
:10048000EF92FF926B017C010E9415024B015C010F
:10049000C114D104E104F104F1F00E941502DC0161
:1004A000CB0188199909AA09BB09883E9340A10587
:1004B000B10570F321E0C21AD108E108F10888EE15
:1004C000880E83E0981EA11CB11CC114D104E10464
:1004D000F10419F7DDCFFF90EF90DF90CF90BF9040
:1004E000AF909F908F900895009769F0FC01019064
:1004F0000020E9F73197AF01481B590BBC0183E994
:1005000091E00C94CF0080E090E00895CF93DF93CA
:100510000E947402EC0182E191E00E9474028C0F4F
:100520009D1FDF91CF9108958F929F92AF92BF92BE
:100530000F931F93CF93DF93CDB7DEB7A1970FB67D
:10054000F894DEBF0FBECDBF19A2423008F44AE0D6
:100550008E010F5D1F4F842E912CA12CB12CA50173
:1005600094010E940405E62FB901CA010150110946
:10057000EA3014F4E05D01C0E95CD801EC93232B70
:10058000242B252B61F7C8010E947402A1960FB697
:10059000F894DEBF0FBECDBFDF91CF911F910F91B9
:1005A000BF90AF909F908F9008950E943B051F923F
:1005B0000F920FB60F9211242F933F934F935F9397
:1005C0006F937F938F939F93AF93BF93EF93FF931B
:1005D00083E991E00E944501FF91EF91BF91AF91B6
:1005E0009F918F917F916F915F914F913F912F914B
:1005F0000F900FBE0F901F9018951F920F920FB67D
:100600000F9211242F938F939F93EF93FF93E09179
:10061000A301F091A4018081E091A901F091AA01C8
:1006200082FD12C090818091AC018F5F8F73209109
:10063000AD01821751F0E091AC01F0E0ED56FE4FB4
:10064000958F8093AC0101C08081FF91EF919F91C4
:100650008F912F910F900FBE0F901F9018951F92A2
:100660000F920FB60F9211242F933F938F939F9366
:10067000AF93BF9380918B0190918C01A0918D01DC
:10068000B0918E0130918A0126E0230F2D3720F49E
:100690000296A11DB11D05C029E8230F0396A11DD7
:1006A000B11D20938A0180938B0190938C01A093BC
:1006B0008D01B0938E0180918F0190919001A09156
:1006C0009101B09192010196A11DB11D80938F01FE
:1006D00090939001A0939101B0939201BF91AF913B
:1006E0009F918F913F912F910F900FBE0F901F9070
:1006F0001895789484B5826084BD84B5816084BD8A
:1007000085B5826085BD85B5816085BD80916E00AF
:10071000816080936E0010928100809181008260E0
:10072000809381008091810081608093810080911D
:1007300080008160809380008091B100846080930C
:10074000B1008091B00081608093B00080917A0008
:10075000846080937A0080917A00826080937A002E
:1007600080917A008E7F80937A0080917A008068F1
:1007700080937A001092C100E091A301F091A4014E
:1007800082E08083E0919F01F091A0011082E091CE
:10079000A101F091A20188E080831092AB01E09169
:1007A000A701F091A80186E08083E091A501F09176
:1007B000A601808180618083E091A501F091A6016E
:1007C000808188608083E091A501F091A6018081FD
:1007D00080688083E091A501F091A60180818F7DE2
:1007E000808385E191E00E9486028CE391E00E9483
:1007F000860285E191E00E94860282E191E00E94FA
:10080000740283E691E00E94860260E08EE00E941E
:10081000D90161E085E00E94D90180E4782E882426
:100820008A9493E0992EA12CB12C09EA10E07092E1
:100830007C0080917A00806480937A0080917A00B5
:1008400086FDFCCFC091780080917900D0E0D82B54
:100850009E01AFEFB0E00E942605A50194010E9421
:10086000E50469017A018CE791E00E947402BE01FF
:1008700080E090E04AE00E94940282E891E00E94C9
:1008800074024AE0C701B6010E94940282E191E03D
:100890000E947402E60161E085E00E94D901C11462
:1008A000D104E104F10411F480E007C08FEFC81611
:1008B000D104E104F10421F481E00E94870042C0E8
:1008C000F80184918330F9F048F48130B9F0823036
:1008D000A1F584B5806284BDC8BC34C08730E9F01E
:1008E000883019F1843049F58091800080628093CE
:1008F0008000D0928B00C0928A0024C084B58068AA
:1009000084BDC7BC1FC08091800080688093800038
:10091000D0928900C092880015C08091B000806894
:100920008093B000C092B3000DC08091B00080628F
:100930008093B000C092B40005C0C038D1050CF05F
:10094000BBCFB2CF6EE571E080E090E00E943A024A
:1009500061E085E00E94D90180E00E94870064E1A7
:1009600070E080E090E00E943A020E94CF015FCFE9
:10097000E3E9F1E01382128288EE93E0A0E0B0E0B8
:1009800084839583A683B78384E091E091838083F9
:1009900085EC90E09587848784EC90E09787868744
:1009A00080EC90E0918B808B81EC90E0938B828B3C
:1009B00082EC90E0958B848B86EC90E0978B868B15
:1009C000118E128E138E148E0895052E97FB1EF431
:1009D00000940E94FC0457FD07D00E94040507FC08
:1009E00003D04EF40C94FC0450954095309521951D
:1009F0003F4F4F4F5F4F089590958095709561954B
:100A00007F4F8F4F9F4F0895A1E21A2EAA1BBB1B49
:100A1000FD010DC0AA1FBB1FEE1FFF1FA217B307CA
:100A2000E407F50720F0A21BB30BE40BF50B661FE0
:100A3000771F881F991F1A9469F7609570958095A4
:100A400090959B01AC01BD01CF010895A29FB0011B
:100A5000B39FC001A39F700D811D1124911DB29FF2
:100A6000700D811D1124911D0895EE0FFF1F05903B
:100A7000F491E02D099481E090E0F8940C94400505
:040A8000F894FFCF18
:100A8400000000006601CF00FE00AD012F010D0142
:100A940021010D0A002F2F2F2F2F2F2F2F2F2F2F14
:100AA4002F2F2F2F2F2F2F2F2F2F2F2F2F2F2F2F52
:100AB4002F2F2F2F2F2F2F2F2F2F2F0041726475A1
:100AC400696E6F20416D6D6574657220436F6E743D
:100AD400726F6C6C65722062792042617274696B0A
:100AE4007573005265616C2D74696D65206465626F
:100AF4007567206F75747075743A2000506F743A7E
:0A0B040020002050574D3A20000059
:00000001FF
